:100000000C942A000C9447000C9447000C94470071
:100010000C9447000C9447000C9447000C94470044
:100020000C9447000C9447000C9447000C94470034
:100030000C9447000C9447000C9447000C94470024
:100040000C9447000C9447000C9447000C94470014
:100050000C94470011241FBECFE5D8E0DEBFCDBF12
:1000600012E0A0E6B0E0E8E7F9E002C005900D92EA
:10007000AC37B107D9F723E0ACE7B2E001C01D927D
:10008000AE31B207E1F70E9449000C94BA040C9417
:100090000000CF93DF931F92CDB7DEB761E082E01F
:1000A0000E9447010E94830180E690E00E9498012F
:1000B00089E790E00E94980186E890E00E9498010C
:1000C0008DE990E00E94980184EB90E00E949801F5
:1000D000CE0101960E94910189810E948A0180E2ED
:1000E0000E948A018981823361F018F4813331F0F2
:1000F000DBCF833399F08433A1F0D6CF0E94A302E3
:10010000D3CF0E94010380917C02823069F081305C
:1001100059F60E9442040E945604C6CF0E9465030D
:10012000C3CF0E94FD03C0CF80E090E00F90DF912D
:10013000CF910895843008F0A9C0683008F0A6C0B7
:100140004130E9F120F0423009F46DC0089581306A
:1001500091F028F08230D9F0833029F108952BB343
:1001600081E090E002C0880F991F6A95E2F78095C0
:1001700082238BBB089528B381E090E002C0880FF2
:10018000991F6A95E2F78095822388BB089525B36D
:1001900081E090E002C0880F991F6A95E2F7809590
:1001A000822385BB089522B381E090E002C0880FCE
:1001B000991F6A95E2F78095822382BB089581306A
:1001C00089F028F08230C9F0833011F108952BB303
:1001D00081E090E002C0880F991F6A95E2F7822BB8
:1001E0008BBB089528B381E090E002C0880F991F6F
:1001F0006A95E2F7822B88BB089525B381E090E0F1
:1002000002C0880F991F6A95E2F7822B85BB08957B
:1002100022B381E090E002C0880F991F6A95E2F74F
:10022000822B82BB0895813089F028F08230C9F09A
:10023000833011F108952BB381E090E002C0880F64
:10024000991F6A95E2F782278BBB089528B381E056
:1002500090E002C0880F991F6A95E2F7822788BB59
:10026000089525B381E090E002C0880F991F6A9538
:10027000E2F7822785BB089522B381E090E002C0B7
:10028000880F991F6A95E2F7822782BB0895843010
:1002900038F56623B1F0613019F5813049F028F066
:1002A000823049F0833051F008958FEF8ABB089572
:1002B0008FEF87BB08958FEF84BB08958FEF81BBCD
:1002C0000895813041F028F0823039F0833039F0E0
:1002D00008951ABA089517BA089514BA089511BA6C
:1002E0000895843078F4813041F028F0823039F07C
:1002F000833039F008956BBB089568BB089565BBE2
:10030000089562BB089583E389B988E18AB986E8D4
:1003100080BD08955D9BFECF8CB95E9BFECF5E9A3B
:1003200008955F9BFECF5F9A2CB1FC012083089556
:100330000F931F93CF93FC018081882359F08F0185
:10034000C0E00E948A01CF5FF801EC0FF11D8081AF
:100350008111F7CFCF911F910F9108950F931F93A4
:10036000CF93DF93FC01C1E0D0E001C0E901CE01F1
:10037000880F991F880F991F880F991F9E01220FC0
:10038000331F280F391FCF01B9010E949704672B33
:1003900069F73097D1F0CF01BE010E949704082F72
:1003A000192F80E3860F0E948A01E02FF12F9E0112
:1003B000ADECBCEC0E94AB04EC01D695C795D6958C
:1003C000C795D695C795309731F7DF91CF911F919B
:1003D0000F910895CF92DF92EF92FF921F93CF93E8
:1003E000DF936C011FEFE62EF12C81E0E81AF10893
:1003F0001F5FE601C10FD11DCE010E9491018881CE
:100400000E948A0188818B3229F0812F90E08E151D
:100410009F0574F31882DF91CF911F91FF90EF90A9
:10042000DF90CF9008955F926F927F928F929F920C
:10043000AF92BF92CF92DF92EF92FF920F931F93F2
:10044000CF93DF93CDB7DEB72A970FB6F894DEBF10
:100450000FBECDBF3C01AE014F5F5F4F7A016A0115
:1004600000E010E0502E58014601C6010E949101A3
:10047000D6018D916D010E948A01F40180818B3239
:1004800009F447C00F5F1F4F0B30110559F741C0EA
:10049000A82FB0E0F501EA1BFB0B319741E050E0DB
:1004A0004C0F5D1FE40FF51F9081A40FB51F2C9119
:1004B0002053208390539C938F5F381748F7552023
:1004C00011F15A94FE01E50DF11D329681E090E0A4
:1004D00020E030E0D7016D917D01689FA001699F08
:1004E000500D1124240F351FAC01440F551F880FE8
:1004F000991F880F991F880F991F840F951FAE179A
:10050000BF0741F702C020E030E0F30131832083D0
:1005100004C0352D369580E0BBCF2A960FB6F894EF
:10052000DEBF0FBECDBFDF91CF911F910F91FF9026
:10053000EF90DF90CF90BF90AF909F908F907F9083
:100540006F905F90089580917D0290E09C01220F52
:10055000331FF901E65FFC4F820F931F880F991F2D
:10056000880F991F82589D4F9183808386EC90E07D
:100570000E949801E0917D02F0E0EE0FFF1FE65F20
:10058000FC4F64E1808191810E94EA0180E20E9437
:100590008A018DED90E00E94980180917D0290E0AB
:1005A000880F991F8A509D4F0E94130280917D02EF
:1005B00090E09C01220F331FF901E80FF91FEE0FA5
:1005C000FF1FEE0FFF1FE258FD4FD901AA50BD4F8C
:1005D0008D919C919387828780E20E948A0183EFAC
:1005E00090E00E94980180917D02805D0E948A01C6
:1005F00080E20E948A0180917D028F5F80937D025C
:1006000008951F93CF93DF9300D01F92CDB7DEB72D
:100610008FEF90E00E949801CE0101960E94910117
:1006200089818053898313E08DED90E00E949801C9
:10063000CE0102960E941302898190E0FC01EE0F28
:10064000FF1FE80FF91FEE0FFF1FEE0FFF1FE2580D
:10065000FD4F228533858A819B812817390741F414
:1006600084E191E00E94980181E080937C0226C0A1
:100670008FE291E00E94980141E061E082E00E94F7
:100680009A002FEF83ED90E3215080409040E1F7F6
:1006900000C0000040E061E082E00E949A0011503A
:1006A00019F608C08DE391E00E94980182E08093E2
:1006B0007C0204C080917C028823A1F30F900F90EC
:1006C0000F90DF91CF911F910895CF93DF9300D0CA
:1006D00000D0CDB7DEB78FE591E00E949801CE0142
:1006E00001960E94910189818053898380E20E9452
:1006F0008A018EE691E00E949801CE0103960E9445
:10070000130280E20E948A01898190E0FC01EE0FD1
:10071000FF1FE80FF91FEE0FFF1FEE0FFF1FE2583C
:10072000FD4F228533858B819C812817390709F07D
:1007300059C083E891E00E94980184EB90E00E9408
:100740009801CE0102960E94910180E20E948A01E6
:100750008A81823351F1833309F448C0813349F7E8
:10076000898190E09C01220F331FF901E65FFC4F65
:10077000820F931F880F991F880F991F82589D4FD2
:100780009183808386EC91E00E949801E981F0E0FA
:10079000EE0FFF1FE65FFC4F64E1808191810E94B4
:1007A000EA0180E20E948A01C4CF81EE91E00E94BA
:1007B0009801CE0103960E941302898190E0FC010A
:1007C000EE0FFF1FE80FF91FEE0FFF1FEE0FFF1FC9
:1007D000E258FD4F8B819C819387828780E20E9443
:1007E0008A01A7CF8BEF91E00E9498010F900F90A4
:1007F0000F900F90DF91CF910895CF93DF931F92C9
:10080000CDB7DEB78FE591E00E949801CE01019649
:100810000E94910189818053898380E20E948A012C
:100820008CEC90E00E949801898190E09C01220F5D
:10083000331F820F931F880F991F880F991F8258AB
:100840009D4F0E94980180E20E948A0183EE90E011
:100850000E949801898190E0FC01EE0FFF1FE80FD4
:10086000F91FEE0FFF1FEE0FFF1FE258FD4F8285AD
:1008700093850E94AE0180E20E948A010F90DF9171
:10088000CF91089541E062E082E00E949A002FEF4C
:100890008DE399E4215080409040E1F700C00000D2
:1008A00040E062E082E00E949A000895CF93DF93D7
:1008B0001F92CDB7DEB761E080E00E9447018BE078
:1008C00092E00E94980183E292E00E9498018EE6F5
:1008D00092E00E949801CE0101960E9491018981C7
:1008E000823379F018F4813331F0EDCF833379F02E
:1008F000843399F0E8CF42E063E080E00E949A0000
:10090000E2CF42E064E080E00E949A00DCCF42E067
:1009100062E080E00E949A00D6CF60E070E080E064
:1009200090E00E9471010F90DF91CF910895AA1B72
:10093000BB1B51E107C0AA1FBB1FA617B70710F0CA
:10094000A61BB70B881F991F5A95A9F780959095FC
:10095000BC01CD010895A29FB001B39FC001A39F28
:10096000700D811D1124911DB29F700D811D1124E8
:08097000911D0895F894FFCFDA
:10097800312E20456E746572206E6577207573651B
:1009880072206E616D652E2000322E205369676ECD
:1009980020496E2E2000332E20456469742063752B
:1009A8007272656E7420646174612E2000342E208A
:1009B80053686F772063757272656E742064617412
:1009C800612E200043686F6F736520612063686F34
:1009D8006963653A2000456E74657220596F7572B7
:1009E8002055736572204E616D653A2000456E741E
:1009F800657220596F75722050617373776F7264D6
:100A08003A2000596F7572204944206973200045C7
:100A18006E74657220596F7572205573657220491E
:100A2800443A2000207C2A2A2A436F727265637434
:100A38002050617373776F72642A2A2A7C20004ED3
:100A48006F7420436F72726563742120005741529E
:100A58004E494E47212120796F7520617265206FBC
:100A68007574206F6620747269616C732E2000455E
:100A78006E74657220596F75722049442000456E66
:100A8800746572207468652050617373776F72643F
:100A98003A2000312E204564697420596F75722000
:100AA80055736572204E616D652E09322E2045649E
:100AB800697420596F75722050617373776F72640F
:100AC8002E0920332E2065786974207468652065A6
:100AD8006469742E2000456E74657220596F7572B2
:100AE800204E65772055736572204E616D653A20FA
:100AF80000456E74657220596F7572204E657720B7
:100B080050617373776F72643A200057726F6E6723
:100B18002050617373776F7264210057656C636F3F
:100B28006D6520746F206F75722073797374656DAD
:100B3800212000312E20546F67676C652052656450
:100B4800204C696768742E0909322E20546F676734
:100B58006C6520426C7565204C696768742E0909BC
:100B6800332E20546F67676C652074686520466172
:100B78006E2E0909342E20457869742E2000596F8D
:0C0B880075722043686F6963653A2000B5
:00000001FF
