S0130000494D542070726F6A6563742E7372656310
S11300000C942A000C9447000C9447000C9447006D
S11300100C9447000C9447000C9447000C94470040
S11300200C9447000C9447000C9447000C94470030
S11300300C9447000C9449000C9447000C9447001E
S11300400C9447000C9447000C9447000C94470010
S11300500C94470011241FBECFE5D8E0DEBFCDBF0E
S113006010E0A0E6B0E0E4E1F1E002C005900D92FA
S1130070A437B107D9F720E0A4E7B0E001C01D928E
S1130080A437B207E1F70E9453000C9488000C9443
S113009000001F920F920FB60F9211240F900FBE03
S11300A00F901F9018950E945E0080E690E00E94D9
S11300B072000E946C000E946500FBCF83E389B943
S11300C088E18AB986E880BD08955D9BFECF8CB92E
S11300D05E9BFECF5E9A08955F9BFECF5F9A8CB1C4
S11300E090E008950F931F93CF938C01C0E0F80123
S11300F0EC0FF11D80810E946500CF5FF801EC0FC9
S1130100F11D80818111F3CFCF911F910F9108953B
S1070110F894FFCF8D
S1130114456E7465722061206368617261637465FD
S1070124723A200007
S9030000FC
