:100000000C942A000C9447000C9447000C94470071
:100010000C9447000C9447000C9447000C94470044
:100020000C9447000C9447000C9447000C94470034
:100030000C9447000C9447000C9447000C94470024
:100040000C9447000C9447000C9447000C94470014
:100050000C94470011241FBECFE5D8E0DEBFCDBF12
:1000600013E0A0E6B0E0ECE2FFE002C005900D92E4
:10007000AC3DB107D9F724E0ACEDB3E001C01D926F
:10008000A43EB207E1F70E94E0000C9494070C94A0
:1000900000000E94920008951F93CF93DF93EC011C
:1000A000162F0E949A00CE0188279370892F8065B1
:1000B0000E94AE008C2F0E94C700812F0E94C700B3
:1000C0000E94DD008FE19EE40197F1F700C000007F
:1000D000DF91CF911F9108950F931F93CF938C01C0
:1000E0000E949A00C80188279370C92FC0658C2F81
:1000F0000E94AE00802F0E94C7000E94A4008C2F97
:100100000E94BA000E94D200C82F0E94DD008FE139
:100110009EE40197F1F700C000008C2FCF911F9152
:100120000F91089587E080B981B18C7F81B984E017
:1001300086BF089584EA86BF06B607FEFDCF81B16B
:10014000887F8830E1F7089584EA86BF06B607FE07
:10015000FDCF81B1887F8031E1F70895880F83B9A1
:1001600084E886BF06B607FEFDCF81B1887F88315F
:10017000E1F70895880F83B9189A84E886BF06B618
:1001800007FEFDCF81B1887F8034E1F7089583B900
:1001900084E886BF06B607FEFDCF81B1887F88322E
:1001A000E1F7089584E886BF06B607FEFDCF81B16A
:1001B000887F8835E1F783B1089584E986BF089583
:1001C0000E94CC0261E080E00E94780241E063E09E
:1001D00081E00E9454010E94490080E090E00E946A
:1001E0006C00892BC1F48FEF93E00E946C00809328
:1001F000DE030E94300780E690E00E94E10287E67D
:1002000090E00E94E1028091DE0390E00E94F702FC
:1002100080E20E94D30285E890E00E94E1028EE92C
:1002200090E00E94E1028BEA90E00E94E10282EC01
:1002300090E00E94E10289ED90E00E94E1028FEEE1
:1002400090E00E94E1028FEC94E00E94DA0280913B
:10025000CF040E94D30280E20E94D3028091CF0497
:100260008333B9F028F4813341F0823349F0D3CF9E
:10027000843391F0853399F0CECF0E945B04CBCFCD
:100280000E943C058091DD03813029F60E94F5062D
:10029000C2CF0E94C705BFCF0E946C06BCCF81E0D1
:1002A00091E00E94E1020895843008F073C0683044
:1002B00008F070C0442319F04130C9F1089581302D
:1002C00091F028F08230D9F0833029F108952AB3D3
:1002D00081E090E002C0880F991F6A95E2F780954F
:1002E00082238ABB089527B381E090E002C0880F83
:1002F000991F6A95E2F78095822387BB089524B3FE
:1003000081E090E002C0880F991F6A95E2F780951E
:10031000822384BB089521B381E090E002C0880F5E
:10032000991F6A95E2F78095822381BB08958130F9
:1003300089F028F08230C9F0833011F108952AB392
:1003400081E090E002C0880F991F6A95E2F7822B46
:100350008ABB089527B381E090E002C0880F991FFF
:100360006A95E2F7822B87BB089524B381E090E081
:1003700002C0880F991F6A95E2F7822B84BB08950B
:1003800021B381E090E002C0880F991F6A95E2F7DF
:10039000822B81BB0895843008F0A9C0683008F032
:1003A000A6C04130E9F120F0423009F46DC0089553
:1003B000813091F028F08230D9F0833029F108950E
:1003C0002BB381E090E002C0880F991F6A95E2F795
:1003D000809582238BBB089528B381E090E002C012
:1003E000880F991F6A95E2F78095822388BB08954C
:1003F00025B381E090E002C0880F991F6A95E2F76B
:100400008095822385BB089522B381E090E002C0ED
:10041000880F991F6A95E2F78095822382BB089521
:10042000813089F028F08230C9F0833011F10895CD
:100430002BB381E090E002C0880F991F6A95E2F724
:10044000822B8BBB089528B381E090E002C0880F17
:10045000991F6A95E2F7822B88BB089525B381E046
:1004600090E002C0880F991F6A95E2F7822B85BB46
:10047000089522B381E090E002C0880F991F6A9529
:10048000E2F7822B82BB0895813089F028F0823018
:10049000C9F0833011F108952BB381E090E002C0E0
:1004A000880F991F6A95E2F782278BBB089528B3BE
:1004B00081E090E002C0880F991F6A95E2F78227D9
:1004C00088BB089525B381E090E002C0880F991F92
:1004D0006A95E2F7822785BB089522B381E090E018
:1004E00002C0880F991F6A95E2F7822782BB0895A0
:1004F000843038F56623B1F0613019F5813049F068
:1005000028F0823049F0833051F008958FEF8ABB94
:1005100008958FEF87BB08958FEF84BB08958FEF09
:1005200081BB0895813041F028F0823039F083306A
:1005300039F008951ABA089517BA089514BA0895AB
:1005400011BA0895843038F56623B1F0613019F599
:10055000813049F028F0823049F0833051F008951D
:100560008FEF8BBB08958FEF88BB08958FEF85BB0E
:1005700008958FEF82BB0895813041F028F08230DA
:1005800039F0833039F008951BBA089518BA0895E8
:1005900015BA089512BA089583E389B988E18AB932
:1005A00086E880BD08955D9BFECF8CB95E9BFECF33
:1005B0005E9A08955F9BFECF5F9A2CB1FC01208369
:1005C00008950F931F93CF93FC018081882359F0E6
:1005D0008F01C0E00E94D302CF5FF801EC0FF11D44
:1005E00080818111F7CFCF911F910F9108950F93C3
:1005F0001F93CF93DF93FC01C1E0D0E001C0E9017C
:10060000CE01880F991F880F991F880F991F9E018F
:10061000220F331F280F391FCF01B9010E94710724
:10062000672B69F73097D1F0CF01BE010E947107A7
:10063000082F192F80E3860F0E94D302E02FF12F9D
:100640009E01ADECBCEC0E948507EC01D695C795E8
:10065000D695C795D695C795309731F7DF91CF914D
:100660001F910F910895CF92DF92EF92FF921F9307
:10067000CF93DF936C011FEFE62EF12C81E0E81A97
:10068000F1081F5FE601C10FD11DCE010E94DA0201
:1006900088810E94D30288818B3229F0812F90E0DB
:1006A0008E159F0574F31882DF91CF911F91FF90F3
:1006B000EF90DF90CF9008955F926F927F928F922C
:1006C0009F92AF92BF92CF92DF92EF92FF920F93E1
:1006D0001F93CF93DF93CDB7DEB72A970FB6F89469
:1006E000DEBF0FBECDBF3C01AE014F5F5F4F7A0151
:1006F0006A0100E010E0502E58014601C6010E9438
:10070000DA02D6018D916D010E94D302F40180813D
:100710008B3209F447C00F5F1F4F0B30110559F79B
:1007200041C0A82FB0E0F501EA1BFB0B319741E077
:1007300050E04C0F5D1FE40FF51F9081A40FB51F13
:100740002C912053208390539C938F5F381748F748
:10075000552011F15A94FE01E50DF11D329681E00C
:1007600090E020E030E0D7016D917D01689FA0010D
:10077000699F500D1124240F351FAC01440F551FE4
:10078000880F991F880F991F880F991F840F951F35
:10079000AE17BF0741F702C020E030E0F30131831C
:1007A000208304C0352D369580E0BBCF2A960FB646
:1007B000F894DEBF0FBECDBFDF91CF911F910F9197
:1007C000FF90EF90DF90CF90BF90AF909F908F9071
:1007D0007F906F905F900895EF92FF920F931F9319
:1007E000CF93DF937C01D62FFC0160816623C9F093
:1007F000F2E3DF9F800111240B5F1F4FC0E0C801AF
:100800008C0F911D0E944C00CF5F8091DC038F5FA5
:100810008093DC03F701EC0FF11D60816111EFCFD4
:1008200001C0C0E022E3D29FC0011124059660E020
:100830008C0F911D0E944C00DF91CF911F910F9161
:10084000FF90EF900895682F22E3829FC00111244A
:100850000E944C008091DC038F5F8093DC0308953D
:10086000EF92FF920F931F93CF93DF937C0182E36C
:10087000689F800111240F5F1F4FC0E0D0E0B701D7
:100880000C2E02C0769567950A94E2F7C8010E9483
:100890004C008091DC038F5F8093DC0328960F5F10
:1008A0001F4FC032D10559F7DF91CF911F910F91A2
:1008B000FF90EF900895CF938091DE038A3008F087
:1008C00075C090E0FC01EE0FFF1FE053FB4FC6E147
:1008D000C89F9001C99F300D1124C9018F519C4FB1
:1008E0009183808385E191E00E94E102E091DE0343
:1008F000F0E0EE0FFF1FE053FB4F64E18081918138
:100900000E94330380E20E94D3028CE291E00E94B5
:10091000E1028091DE0390E0880F991F85549B4F80
:100920000E945C038091DE0390E0C89FD001C99FC4
:10093000B00D1124A152BC4F880F991FFC01E55442
:10094000FB4F808191818D939C9380E20E94D30222
:1009500082E491E00E94E1028091DE03805D0E94CA
:10096000D30280E20E94D3028091DE030E9423041E
:100970006091DE038091D0049091D1040E94EC0339
:100980006091DE03E62FF0E0EE0FFF1FE554FB4F12
:10099000808191810E9430046091DE036F5F6093DB
:1009A000DE038FEF93E00E944C0008C08EE491E0DC
:1009B0000E94E1028EE691E00E94E102CF9108954B
:1009C000FF920F931F93CF93DF9322E3829FC00187
:1009D00011240196C82F6894FF24F2F8F80EF81637
:1009E000C0F0D0E000E010E08C2F90E00E946C009E
:1009F00090E02D2F220F220F220F02C0880F991F87
:100A00002A95E2F7080F191FDF5FCF5FFC1660F72A
:100A100002C000E010E0C801DF91CF911F910F915B
:100A2000FF9008950F931F93CF93DF938C01C2E340
:100A30006C9FC02D1124CB5F8C2F90E00E946C0026
:100A4000882379F0D0E0F801ED0FF11D80838C2F21
:100A500090E001960E946C00DF5FCF5F8111F3CFC1
:100A600001C0D0E0F801ED0FF11D10828D2FDF9154
:100A7000CF911F910F9108950F931F93CF93DF9301
:100A800000D01F92CDB7DEB789E991E00E94E10264
:100A9000CE0101960E94DA0289818053898310E099
:100AA00006E18CE291E00E94E102CE0102960E94F2
:100AB0005C03E9810E9FF0011124E152FC4F20817B
:100AC00031818A819B812817390729F58EEA91E0C7
:100AD0000E94E10240E062E080E00E94CB0140E041
:100AE00061E080E00E94CB0141E060E080E00E9494
:100AF000CB012FEF81E19AE7215080409040E1F750
:100B000000C0000040E060E080E00E94CB0181E096
:100B10008093DD0334C01F5F133009F189EC91E04D
:100B20000E94E10241E061E080E00E94CB0187ED9C
:100B300091E00E94E10286EE91E00E94E1028FECDA
:100B400094E00E94DA028091CF04813309F4A9CFA6
:100B50008233A9F088EF91E00E94E102E8CF809112
:100B6000DD0381110CC081E192E00E94E10241E0CD
:100B700062E080E00E94CB0182E08093DD030F9071
:100B80000F900F90DF91CF911F910F9108951F93B8
:100B9000CF93DF9300D000D0CDB7DEB783E392E0F0
:100BA0000E94E102CE0101960E94DA0289818053FF
:100BB000898380E20E94D30299818091DE03981795
:100BC00008F07EC082E492E00E94E102CE0103962A
:100BD0000E945C0380E20E94D302E98186E1E89FE3
:100BE000F0011124E152FC4F208131818B819C81E5
:100BF0002817390709F05FC016E187E592E00E94E7
:100C0000E1028FEE90E00E94E102CE0102960E9486
:100C1000DA0280E20E94D3028A818233A1F1833317
:100C200009F452C0813349F7898190E0FC01EE0F4D
:100C3000FF1FE053FB4F189F9001199F300D1124A7
:100C4000C9018F519C4F918380838AE992E00E9471
:100C5000E102E981F0E0EE0FFF1FE053FB4F64E19A
:100C6000808191810E9433036981E62FF0E0EE0FCD
:100C7000FF1FE053FB4F808191810E94EC0380E2D3
:100C80000E94D302BACF85EB92E00E94E102CE012E
:100C900003960E945C0369818B819C81169FF00101
:100CA0001124E152FC4F918380830E94300480E242
:100CB0000E94D302A2CF8FEC92E00E94E10204C016
:100CC0008FED92E00E94E1020F900F900F900F9035
:100CD000DF91CF911F9108950F931F93CF93DF93CF
:100CE0001F92CDB7DEB783E392E00E94E102CE010E
:100CF00001960E94DA0289810E94D3028981805381
:100D0000898380E20E94D30299818091DE03981743
:100D100068F587EF92E00E94E102898116E1189F51
:100D2000C00111248F519C4F0E94E10280E20E9479
:100D3000D30282E391E00E94E1020981802F0E94A8
:100D4000E004109FF0011124E152FC4F9183808355
:100D5000E9811E9FF0011124E152FC4F80819181B5
:100D60000E94F70280E20E94D30204C088E093E070
:100D70000E94E1020F90DF91CF911F910F91089592
:100D8000CF93DF931F92CDB7DEB70E9459078FE153
:100D900093E00E94E10289E693E00E94E102CE0125
:100DA00001960E94DA028981833399F028F4813315
:100DB00041F0823351F0EBCF843379F0853389F001
:100DC000E6CF8FEF0E946F07E2CF80E80E946F07A7
:100DD000DECF80E40E946F07DACF80E00E946F07C9
:100DE000D6CF0F90DF91CF910895CF93DF931F92CD
:100DF000CDB7DEB787E793E00E94E1028FE893E08A
:100E00000E94E10289E693E00E94E102CE01019690
:100E10000E94DA028981823379F018F4813331F04B
:100E2000EDCF833379F0843381F0E8CF42E063E0A3
:100E300080E00E94CB01E2CF42E064E080E00E94CB
:100E4000CB01DCCF0E94C006D9CF60E080E00E94D9
:100E5000A20280E00E946F070F90DF91CF9108956A
:100E60000F931F93CF93DF938091DE038823E1F0EC
:100E7000C0E0D6E10C2F10E08C2F0E94E004D09F40
:100E80009001D19F300D1124F901E152FC4F918363
:100E900080836C2FC9018F519C4F0E941205CF5F38
:100EA0008091DE03C81730F3DF91CF911F910F912E
:100EB000089583B7806483BF83B7886083BF83B797
:100EC0008F7E83BF83B7806283BF83B7816083BF18
:100ED00083B7826083BF83B78B7F83BF08958CBF46
:100EE0000895AA1BBB1B51E107C0AA1FBB1FA61771
:100EF000B70710F0A61BB70B881F991F5A95A9F7C3
:100F000080959095BC01CD010895A29FB001B39F3B
:100F1000C001A39F700D811D1124911DB29F700D02
:0C0F2000811D1124911D0895F894FFCF4D
:100F2C002A2A2A2A2A2000546865206E756D62656B
:100F3C0072206F662063757272656E7420757365AE
:100F4C0072733A2000312E20456E746572206E65E6
:100F5C00772075736572206E616D652E2000322EC0
:100F6C00205369676E20496E2E2000332E20456475
:100F7C0069742063757272656E7420646174612E7D
:100F8C002000342E2053686F772063757272656E63
:100F9C007420646174612E2000352E2045786974AC
:100FAC00207468652070726F6772616D2E2000432B
:100FBC00686F6F736520612063686F6963653A20A1
:100FCC00004F4B2C2053656520596F75204C617474
:100FDC006572212000456E74657220596F75722000
:100FEC0055736572206E616D653A2000456E7465AF
:100FFC007220596F75722050617373776F72643AF7
:10100C002000596F757220494420697320002A2AE8
:10101C002A2A4E6F20537061636520466F72204EF2
:10102C006577205573657273212A2A2A2A00205964
:10103C006F752063616E2065646974207468652027
:10104C0064617461206F6620612063757272656ED5
:10105C007420757365722E2000456E74657220596C
:10106C006F757220557365722049443A2000207CBC
:10107C002A2A2A436F7272656374205061737377E6
:10108C006F72642A2A2A7C20004E6F7420436F7280
:10109C007265637421200020312E20547279204116
:1010AC006761696E200020322E206261636B2074B0
:1010BC006F206D656E7520002063686F6F736520FF
:1010CC00612076616C69642063686F6963652120B7
:1010DC00005741524E494E47212120796F752061AE
:1010EC007265206F7574206F6620747269616C7301
:1010FC002E2000456E74657220596F75722049441C
:10110C002000456E7465722074686520506173739D
:10111C00776F72643A2000312E204564697420592F
:10112C006F75722055736572204E616D652E093294
:10113C002E204564697420596F7572205061737349
:10114C00776F72642E0920332E20657869742074B1
:10115C00686520656469742E2000456E7465722084
:10116C00596F7572204E65772055736572204E61EC
:10117C006D653A2000456E74657220596F7572204A
:10118C004E65772050617373776F72643A20005705
:10119C00726F6E672050617373776F7264210057A2
:1011AC006520446F6E2774206861766520746869C9
:1011BC0073204944212000596F7572205573657254
:1011CC00204E616D653A2000576520446F6E277480
:1011DC002048617665207468697320494420003189
:1011EC002E7370656564206D6178202E0909322E8E
:1011FC0020737065656420353025202E0909332E47
:10120C00207370656564203235252E0909342E73E0
:10121C00746F702E090909352E206261636B20747E
:10122C006F206D656E752E2000596F7572204368A6
:10123C006F6963653A200057656C636F6D65207448
:10124C006F206F75722073797374656D2120003176
:10125C002E20546F67676C6520526564204C69675B
:10126C0068742E0909322E20546F67676C65204212
:10127C006C7565204C696768742E0909332E204300
:10128C006F6E74726F6C207468652046616E2E09E7
:0C129C0009342E20457869742E200000D3
:00000001FF
