:100000000C942A000C9447000C9447000C94470071
:100010000C9447000C9447000C9447000C94470044
:100020000C9447000C9447000C9447000C94470034
:100030000C9447000C9447000C9447000C94470024
:100040000C9447000C9447000C9447000C94470014
:100050000C94470011241FBECFE5D8E0DEBFCDBF12
:1000600013E0A0E6B0E0E2EDFEE002C005900D92E4
:10007000AE36B107D9F724E0AEE6B3E001C01D9279
:10008000A637B207E1F70E94D1000C9467070C94E1
:1000900000000E9483000895CF93DF93D82FC62FCE
:1000A0000E948B0080E50E949F008D2F0E94B80067
:1000B0008C2F0E94B8000E94CE008FE19EE4019731
:1000C000F1F700C00000DF91CF910895CF93C82FC2
:1000D0000E948B0080E50E949F008C2F0E94B80038
:1000E0000E94950080E50E94AB000E94C300C82FCB
:1000F0000E94CE008FE19EE40197F1F700C000005E
:100100008C2FCF91089587E080B981B18C7F81B920
:1001100084E086BF089584EA86BF06B607FEFDCF59
:1001200081B1887F8830E1F7089584EA86BF06B6FA
:1001300007FEFDCF81B1887F8031E1F70895880FF8
:1001400083B984E886BF06B607FEFDCF81B1887FFC
:100150008831E1F70895880F83B9189A84E886BF3B
:1001600006B607FEFDCF81B1887F8034E1F70895A0
:1001700083B984E886BF06B607FEFDCF81B1887FCC
:100180008832E1F7089584E886BF06B607FEFDCF02
:1001900081B1887F8835E1F783B1089584E986BF0E
:1001A00008950E94BD0261E080E00E94690241E082
:1001B00063E081E00E9445010E94490080E090E0F8
:1001C0000E946600892B41F48FEF93E00E94660045
:1001D000809370030E94030780E690E00E94D202A1
:1001E00087E690E00E94D2028091700390E00E9426
:1001F000E80280E20E94C40285E890E00E94D202F8
:100200008EE990E00E94D2028BEA90E00E94D20236
:1002100082EC90E00E94D20289ED90E00E94D2022E
:100220008FEE90E00E94D20281E694E00E94CB0221
:10023000809161040E94C40280E20E94C402809105
:1002400061048333B9F028F4813341F0823349F0FB
:10025000D3CF843391F0853399F0CECF0E944C04F4
:10026000CBCF0E94240580916F03813029F60E9434
:10027000C806C2CF0E949A05BFCF0E943F06BCCFDE
:1002800081E091E00E94D2020895843008F073C0AA
:10029000683008F070C0442319F04130C9F1089566
:1002A000813091F028F08230D9F0833029F108951F
:1002B0002AB381E090E002C0880F991F6A95E2F7A7
:1002C000809582238ABB089527B381E090E002C025
:1002D000880F991F6A95E2F78095822387BB08955E
:1002E00024B381E090E002C0880F991F6A95E2F77D
:1002F0008095822384BB089521B381E090E002C001
:10030000880F991F6A95E2F78095822381BB089533
:10031000813089F028F08230C9F0833011F10895DE
:100320002AB381E090E002C0880F991F6A95E2F736
:10033000822B8ABB089527B381E090E002C0880F2A
:10034000991F6A95E2F7822B87BB089524B381E059
:1003500090E002C0880F991F6A95E2F7822B84BB58
:10036000089521B381E090E002C0880F991F6A953B
:10037000E2F7822B81BB0895843008F0A9C0683071
:1003800008F0A6C04130E9F120F0423009F46DC018
:100390000895813091F028F08230D9F0833029F12E
:1003A00008952BB381E090E002C0880F991F6A95F1
:1003B000E2F7809582238BBB089528B381E090E01B
:1003C00002C0880F991F6A95E2F78095822388BB47
:1003D000089525B381E090E002C0880F991F6A95C7
:1003E000E2F78095822385BB089522B381E090E0F7
:1003F00002C0880F991F6A95E2F78095822382BB1D
:100400000895813089F028F08230C9F0833011F1ED
:1004100008952BB381E090E002C0880F991F6A9580
:10042000E2F7822B8BBB089528B381E090E002C0F5
:10043000880F991F6A95E2F7822B88BB089525B330
:1004400081E090E002C0880F991F6A95E2F7822B45
:1004500085BB089522B381E090E002C0880F991F08
:100460006A95E2F7822B82BB0895813089F028F0EB
:100470008230C9F0833011F108952BB381E090E010
:1004800002C0880F991F6A95E2F782278BBB0895F7
:1004900028B381E090E002C0880F991F6A95E2F7C7
:1004A000822788BB089525B381E090E002C0880FC1
:1004B000991F6A95E2F7822785BB089522B381E0F0
:1004C00090E002C0880F991F6A95E2F7822782BBED
:1004D0000895843038F56623B1F0613019F5813024
:1004E00049F028F0823049F0833051F008958FEFC1
:1004F0008ABB08958FEF87BB08958FEF84BB089563
:100500008FEF81BB0895813041F028F0823039F0BF
:10051000833039F008951ABA089517BA089514BAB5
:10052000089511BA0895843038F56623B1F061302A
:1005300019F5813049F028F0823049F0833051F0CC
:1005400008958FEF8BBB08958FEF88BB08958FEFD1
:1005500085BB08958FEF82BB0895813041F028F06C
:10056000823039F0833039F008951BBA089518BAF3
:10057000089515BA089512BA089583E389B988E1F8
:100580008AB986E880BD08955D9BFECF8CB95E9BDD
:10059000FECF5E9A08955F9BFECF5F9A2CB1FC015F
:1005A000208308950F931F93CF93FC0180818823AC
:1005B00059F08F01C0E00E94C402CF5FF801EC0F38
:1005C000F11D80818111F7CFCF911F910F91089577
:1005D0000F931F93CF93DF93FC01C1E0D0E001C0E4
:1005E000E901CE01880F991F880F991F880F991F65
:1005F0009E01220F331F280F391FCF01B9010E941E
:100600004407672B69F73097D1F0CF01BE010E94F4
:100610004407082F192F80E3860F0E94C402E02FA1
:10062000F12F9E01ADECBCEC0E945807EC01D69571
:10063000C795D695C795D695C795309731F7DF9171
:10064000CF911F910F910895CF92DF92EF92FF9279
:100650001F93CF93DF936C011FEFE62EF12C81E007
:10066000E81AF1081F5FE601C10FD11DCE010E94FB
:10067000CB0288810E94C40288818B3229F0812FAD
:1006800090E08E159F0574F31882DF91CF911F9132
:10069000FF90EF90DF90CF9008955F926F927F92DE
:1006A0008F929F92AF92BF92CF92DF92EF92FF9282
:1006B0000F931F93CF93DF93CDB7DEB72A970FB673
:1006C000F894DEBF0FBECDBF3C01AE014F5F5F4F60
:1006D0007A016A0100E010E0502E58014601C6017F
:1006E0000E94CB02D6018D916D010E94C402F401DB
:1006F00080818B3209F447C00F5F1F4F0B3011050B
:1007000059F741C0A82FB0E0F501EA1BFB0B319768
:1007100041E050E04C0F5D1FE40FF51F9081A40FE6
:10072000B51F2C912053208390539C938F5F3817D3
:1007300048F7552011F15A94FE01E50DF11D32964E
:1007400081E090E020E030E0D7016D917D01689F6D
:10075000A001699F500D1124240F351FAC01440FD7
:10076000551F880F991F880F991F880F991F840F95
:10077000951FAE17BF0741F702C020E030E0F3013C
:100780003183208304C0352D369580E0BBCF2A9677
:100790000FB6F894DEBF0FBECDBFDF91CF911F9192
:1007A0000F91FF90EF90DF90CF90BF90AF909F9010
:1007B0008F907F906F905F900895EF92FF920F93CC
:1007C0001F93CF93DF937C01D62FFC0160816623BA
:1007D000C9F0F2E3DF9F800111240B5F1F4FC0E0DF
:1007E000C8018C0F911D0E944C00CF5F80916E0359
:1007F0008F5F80936E03F701EC0FF11D6081611133
:10080000EFCF01C0C0E022E3D29FC00111240596C2
:1008100060E08C0F911D0E944C00DF91CF911F91E1
:100820000F91FF90EF900895682F22E3829FC001FF
:1008300011240E944C0080916E038F5F80936E03A1
:100840000895EF92FF920F931F93CF93DF937C0154
:1008500082E3689F800111240F5F1F4FC0E0D0E04A
:10086000B7010C2E02C0769567950A94E2F7C8018D
:100870000E944C0080916E038F5F80936E032896D8
:100880000F5F1F4FC032D10559F7DF91CF911F91F4
:100890000F91FF90EF900895CF93809170038A306D
:1008A00008F074C090E0FC01EE0FFF1FEE59FB4F03
:1008B000C6E1C89F9001C99F300D1124C9018D5810
:1008C0009C4F9183808385E191E00E94D202E09168
:1008D0007003F0E0EE0FFF1FEE59FB4F64E18081E3
:1008E00091810E94240380E20E94C4028CE291E084
:1008F0000E94D2028091700390E0880F991F835B61
:100900009B4F0E944D038091700390E0C89FD001DF
:10091000C99FB00D1124AF58BC4F880F991FFC011F
:10092000E35BFB4F808191818D939C9380E20E94D9
:10093000C40282E491E00E94D20280917003805D43
:100940000E94C40280E20E94C402809170030E944F
:1009500014046091700380916204909163040E947A
:10096000DD0360917003E62FF0E0EE0FFF1FE35B05
:10097000FB4F808191810E942104609170036F5F21
:10098000609370038FEF93E00E944C00CF91089525
:10099000FF920F931F93CF93DF9322E3829FC001B7
:1009A00011240196C82F6894FF24F2F8F80EF81667
:1009B000C0F0D0E000E010E08C2F90E00E946600D4
:1009C00090E02D2F220F220F220F02C0880F991FB7
:1009D0002A95E2F7080F191FDF5FCF5FFC1660F75B
:1009E00002C000E010E0C801DF91CF911F910F918C
:1009F000FF9008950F931F93CF93DF938C01C2E371
:100A00006C9FC02D1124CB5F8C2F90E00E9466005C
:100A1000882379F0D0E0F801ED0FF11D80838C2F51
:100A200090E001960E946600DF5FCF5F8111F3CFF7
:100A300001C0D0E0F801ED0FF11D10828D2FDF9184
:100A4000CF911F910F9108951F93CF93DF9300D003
:100A50001F92CDB7DEB78EE491E00E94D202CE01A4
:100A600001960E94CB0289818053898316E145C09B
:100A700083E691E00E94D20240E062E080E00E94C2
:100A8000BC0140E061E080E00E94BC0141E060E028
:100A900080E00E94BC012FEF81E19AE72150804065
:100AA0009040E1F700C0000040E060E080E00E947C
:100AB000BC0181E080936F0336C08EE791E00E9415
:100AC000D20241E061E080E00E94BC018CE891E04C
:100AD0000E94D2028BE991E00E94D20281E694E06A
:100AE0000E94CB0280916104813339F08233D9F0C6
:100AF0008DEA91E00E94D202E9CF8CE291E00E945F
:100B0000D202CE0102960E944D03E9811E9FF001A0
:100B10001124EF58FC4F208131818A819B81281755
:100B2000390759F6A5CF0F900F900F90DF91CF9115
:100B30001F9108951F93CF93DF9300D000D0CDB7BE
:100B4000DEB786EC91E00E94D202CE0101960E94AF
:100B5000CB0289818053898380E20E94C4029981FB
:100B600080917003981708F07EC085ED91E00E9497
:100B7000D202CE0103960E944D0380E20E94C4027D
:100B8000E98186E1E89FF0011124EF58FC4F2081B4
:100B900031818B819C812817390709F05FC016E1EC
:100BA0008AEE91E00E94D2028FEE90E00E94D20283
:100BB000CE0102960E94CB0280E20E94C4028A818A
:100BC0008233A1F1833309F452C0813349F789811B
:100BD00090E0FC01EE0FFF1FEE59FB4F189F9001B4
:100BE000199F300D1124C9018D589C4F918380832A
:100BF0008DE292E00E94D202E981F0E0EE0FFF1F49
:100C0000EE59FB4F64E1808191810E942403698148
:100C1000E62FF0E0EE0FFF1FEE59FB4F8081918130
:100C20000E94DD0380E20E94C402BACF88E492E011
:100C30000E94D202CE0103960E944D0369818B81EE
:100C40009C81169FF0011124EF58FC4F9183808303
:100C50000E94210480E20E94C402A2CF82E692E0B8
:100C60000E94D20204C082E792E00E94D2020F905A
:100C70000F900F900F90DF91CF911F9108950F93D8
:100C80001F93CF93DF931F92CDB7DEB786EC91E031
:100C90000E94D202CE0101960E94CB0289810E945D
:100CA000C40289818053898380E20E94C4029981B1
:100CB00080917003981768F58AE892E00E94D2024A
:100CC000898116E1189FC00111248D589C4F0E9404
:100CD000D20280E20E94C40282E391E00E94D2022A
:100CE0000981802F0E94C804109FF0011124EF5841
:100CF000FC4F91838083E9811E9FF0011124EF58FE
:100D0000FC4F808191810E94E80280E20E94C4022F
:100D100004C08BE992E00E94D2020F90DF91CF9144
:100D20001F910F910895CF93DF931F92CDB7DEB738
:100D30000E942C0782EB92E00E94D2028CEF92E09C
:100D40000E94D202CE0101960E94CB028981833398
:100D500099F028F4813341F0823351F0EBCF8433A2
:100D600079F0853389F0E6CF8FEF0E944207E2CF1A
:100D700080E80E944207DECF80E40E944207DACF7B
:100D800080E00E944207D6CF0F90DF91CF91089567
:100D9000CF93DF931F92CDB7DEB78AE093E00E9436
:100DA000D20282E293E00E94D2028CEF92E00E9493
:100DB000D202CE0101960E94CB028981823379F062
:100DC00018F4813331F0EDCF833379F0843381F03F
:100DD000E8CF42E063E080E00E94BC01E2CF42E065
:100DE00064E080E00E94BC01DCCF0E949306D9CF72
:100DF00060E080E00E94930280E00E9442070F9032
:100E0000DF91CF9108950F931F93CF93DF9380913C
:100E100070038823E1F0C0E0D6E10C2F10E08C2FA6
:100E20000E94C804D09F9001D19F300D1124F90178
:100E3000EF58FC4F918380836C2FC9018D589C4FD4
:100E40000E94FA04CF5F80917003C81730F3DF91DE
:100E5000CF911F910F91089583B7806483BF83B7AB
:100E6000886083BF83B78F7E83BF83B7806283BF71
:100E700083B7816083BF83B7826083BF83B78B7F73
:100E800083BF08958CBF0895AA1BBB1B51E107C007
:100E9000AA1FBB1FA617B70710F0A61BB70B881F0A
:100EA000991F5A95A9F780959095BC01CD01089599
:100EB000A29FB001B39FC001A39F700D811D11249B
:100EC000911DB29F700D811D1124911D0895F894FC
:020ED000FFCF52
:100ED2002A2A2A2A2A2000546865206E756D6265C6
:100EE20072206F662063757272656E742075736509
:100EF20072733A2000312E20456E746572206E6541
:100F0200772075736572206E616D652E2000322E1A
:100F1200205369676E20496E2E2000332E204564CF
:100F220069742063757272656E7420646174612ED7
:100F32002000342E2053686F772063757272656EBD
:100F42007420646174612E2000352E204578697406
:100F5200207468652070726F6772616D2E20004385
:100F6200686F6F736520612063686F6963653A20FB
:100F7200004F4B2C2053656520596F75204C6174CE
:100F82006572212000456E74657220596F7572205A
:100F920055736572206E616D653A2000456E746509
:100FA2007220596F75722050617373776F72643A51
:100FB2002000596F75722049442069732000456EE4
:100FC20074657220596F7572205573657220494499
:100FD2003A2000207C2A2A2A436F727265637420A9
:100FE20050617373776F72642A2A2A7C20004E6FD5
:100FF2007420436F727265637421200020312E20A9
:1010020054727920416761696E200020322E20627D
:1010120061636B20746F206D656E752000206368BC
:101022006F6F736520612076616C69642063686FFD
:10103200696365212000456E74657220596F75726F
:101042002049442000456E74657220746865205002
:10105200617373776F72643A2000312E20456469A0
:101062007420596F75722055736572204E616D65DB
:101072002E09322E204564697420596F75722050F2
:10108200617373776F72642E0920332E206578693D
:10109200742074686520656469742E2000456E743E
:1010A200657220596F7572204E657720557365728F
:1010B200204E616D653A2000456E74657220596F4D
:1010C2007572204E65772050617373776F72643A40
:1010D200200057726F6E672050617373776F72646E
:1010E2002100576520446F6E277420686176652061
:1010F20074686973204944212000596F7572205524
:10110200736572204E616D653A2000576520446F09
:101112006E2774204861766520746869732049449B
:101122002000312E7370656564206D6178202E0970
:1011320009322E20737065656420353025202E0912
:1011420009332E207370656564203235252E090916
:10115200342E73746F702E090909352E2062616373
:101162006B20746F206D656E752E2000596F75723D
:101172002043686F6963653A200057656C636F6D41
:101182006520746F206F75722073797374656D2199
:101192002000312E20546F67676C652052656420F1
:1011A2004C696768742E0909322E20546F67676C88
:1011B2006520426C7565204C696768742E09093395
:1011C2002E20436F6E74726F6C20746865204661C6
:0E11D2006E2E0909342E20457869742E2000F7
:00000001FF
