:100000000C942A000C9447000C9447000C94470071
:100010000C9447000C9447000C9447000C94470044
:100020000C9447000C9447000C9447000C94470034
:100030000C9447000C9447000C9447000C94470024
:100040000C9447000C9447000C9447000C94470014
:100050000C94470011241FBECFE5D8E0DEBFCDBF12
:1000600011E0A0E6B0E0E6ECF5E002C005900D92EC
:10007000A835B107D9F721E0A8E5B1E001C01D928C
:10008000A93AB207E1F70E9449000C94E1020C94EE
:100090000000CF93DF931F92CDB7DEB70E946E00B2
:1000A00080E690E00E948300CE0101960E947C00D1
:1000B00089810E94750080E20E94750089818333E6
:1000C00039F0843341F0813359F70E948E01E8CF33
:1000D0000E94EB01E5CF0E948102E2CF83E389B960
:1000E00088E18AB986E880BD08955D9BFECF8CB912
:1000F0005E9BFECF5E9A08955F9BFECF5F9A2CB108
:10010000FC01208308950F931F93CF93FC018081FE
:10011000882359F08F01C0E00E947500CF5FF8017D
:10012000EC0FF11D80818111F7CFCF911F910F91BD
:1001300008950F931F93CF93DF93FC01C1E0D0E0AC
:1001400001C0E901CE01880F991F880F991F880F00
:10015000991F9E01220F331F280F391FCF01B901AC
:100160000E94BE02672B69F73097D1F0CF01BE0124
:100170000E94BE02082F192F80E3860F0E9475008F
:10018000E02FF12F9E01ADECBCEC0E94D202EC01FD
:10019000D695C795D695C795D695C795309731F71B
:1001A000DF91CF911F910F910895CF92DF92EF923F
:1001B000FF921F93CF93DF936C011FEFE62EF12C7C
:1001C00081E0E81AF1081F5FE601C10FD11DCE01E1
:1001D0000E947C0088810E94750088818B3229F002
:1001E000812F90E08E159F0574F31882DF91CF91D7
:1001F0001F91FF90EF90DF90CF9008955F926F92E4
:100200007F928F929F92AF92BF92CF92DF92EF92A6
:10021000FF920F931F93CF93DF93CDB7DEB72A974B
:100220000FB6F894DEBF0FBECDBF3C01AE014F5FED
:100230005F4F7A016A0100E010E0502E580146013C
:10024000C6010E947C00D6018D916D010E9475004F
:10025000F40180818B3209F447C00F5F1F4F0B30D0
:10026000110559F741C0A82FB0E0F501EA1BFB0BBF
:10027000319741E050E04C0F5D1FE40FF51F908176
:10028000A40FB51F2C912053208390539C938F5F14
:10029000381748F7552011F15A94FE01E50DF11D6C
:1002A000329681E090E020E030E0D7016D917D0151
:1002B000689FA001699F500D1124240F351FAC01C8
:1002C000440F551F880F991F880F991F880F991F7A
:1002D000840F951FAE17BF0741F702C020E030E042
:1002E000F3013183208304C0352D369580E0BBCFE8
:1002F0002A960FB6F894DEBF0FBECDBFDF91CF9127
:100300001F910F91FF90EF90DF90CF90BF90AF9033
:100310009F908F907F906F905F90089582E790E01C
:100320000E948300E0915801F0E0EE0FFF1FEB56B2
:10033000FE4F64E1808191810E94D5008091580137
:1003400090E0DC01AA0FBB1FAA0FBB1FA75ABE4F2C
:10035000880F991FFC01EB56FE4F808191818D9390
:100360009C9380E20E94750089E890E00E948300DF
:100370008091580190E0880F991F8F579E4F0E94DF
:10038000FE008091580190E0DC01AA0FBB1FAA0F6C
:10039000BB1FA75ABE4F880F991FFC01EF57FE4F96
:1003A0008081918113969C938E93129780E20E9494
:1003B00075008FE990E00E94830080915801805D74
:1003C0000E94750080E20E947500809158018F5F45
:1003D000809358010895CF93DF9300D0CDB7DEB757
:1003E0008BEA90E00E948300CE0101960E947C007F
:1003F00089818053898380E20E9475008AEB90E0B6
:100400000E94830081E891E00E94FE0080E20E9449
:100410007500E981F0E0EE0FFF1FEE0FFF1FE75AB6
:10042000FE4F828193818158914009F061C08FEC29
:1004300090E00E94830080E690E00E948300CE015D
:1004400002960E947C0080E20E9475008A818233BD
:1004500059F1833309F450C0813309F04DC082E172
:1004600091E00E948300E981F0E0EE0FFF1FEB5660
:10047000FE4F64E1808191810E94D500898190E0E6
:10048000DC01AA0FBB1FAA0FBB1FA75ABE4F880FC4
:10049000991FFC01EB56FE4F808191818D939C93B7
:1004A00080E20E94750028C08DE291E00E948300E6
:1004B000898190E0880F991F8F579E4F0E94FE0000
:1004C000898190E0DC01AA0FBB1FAA0FBB1FA75AAE
:1004D000BE4F880F991FFC01EF57FE4F808191811D
:1004E00013969C938E93129780E20E94750004C02D
:1004F00087E491E00E9483000F900F90DF91CF91ED
:100500000895CF93DF931F92CDB7DEB78BEA90E0CB
:100510000E948300CE0101960E947C008981805355
:10052000898380E20E94750088E790E00E94830042
:10053000E981F0E0EE0FFF1FEE0FFF1FE75AFE4FBD
:10054000808191810E94830080E20E9475008FE883
:1005500090E00E948300E981F0E0EE0FFF1FEE0FB4
:10056000FF1FE75AFE4F828193810E94990080E22B
:100570000E9475000F90DF91CF910895AA1BBB1BBD
:1005800051E107C0AA1FBB1FA617B70710F0A61B93
:10059000B70B881F991F5A95A9F780959095BC01B4
:1005A000CD010895A29FB001B39FC001A39F700D1C
:1005B000811D1124911DB29F700D811D1124911D6B
:0605C0000895F894FFCF3E
:1005C60043686F6F736520612063686F6963653A7E
:1005D6002000456E74657220596F757220557365DB
:1005E60072204E616D653A2000456E746572205921
:1005F6006F75722050617373776F72643A20005979
:100606006F75722049442069732000456E746572C7
:1006160020596F75722049442000456E746572201A
:100626007468652050617373776F72643A20003185
:100636002E204564697420596F7572205573657252
:10064600204E616D652E09322E204564697420594D
:100656006F75722050617373776F72642E09203341
:100666002E20657869742074686520656469742E27
:100676002000456E74657220596F7572204E65773D
:100686002055736572204E616D653A2000456E7483
:10069600657220596F7572204E65772050617373AD
:1006A600776F72643A200057726F6E6720506173DD
:0806B60073776F7264210000EC
:00000001FF
