S0130000494D542070726F6A6563742E7372656310
S11300000C942A000C9447000C9447000C9447006D
S11300100C9447000C9447000C9447000C94470040
S11300200C9447000C9447000C9447000C94470030
S11300300C9447000C9447000C9447000C94470020
S11300400C9447000C9447000C9447000C94470010
S11300500C94470011241FBECFE5D8E0DEBFCDBF0E
S113006012E0A0E6B0E0E4ECF6E002C005900D92E8
S1130070A231B107D9F722E0A2E1B2E001C01D929A
S1130080A43BB207E1F70E9449000C9460030C946E
S11300900000CF93DF931F92CDB7DEB70E9490008C
S11300A080E690E00E94A50089E790E00E94A50008
S11300B086E890E00E94A5008DE990E00E94A500EA
S11300C084EB90E00E94A500CE0101960E949E0060
S11300D089810E94970080E20E949700898182337F
S11300E061F018F4813331F0DBCF833369F084336A
S11300F071F0D6CF0E94B001D3CF0E940E0280913E
S11301001202823069F606C00E945F02C9CF0E94C3
S1130110F802C6CF80E090E00F90DF91CF91089570
S113012083E389B988E18AB986E880BD08955D9B37
S1130130FECF8CB95E9BFECF5E9A08955F9BFECF87
S11301405F9A2CB1FC01208308950F931F93CF93E2
S1130150FC018081882359F08F01C0E00E94970040
S1130160CF5FF801EC0FF11D80818111F7CFCF91A2
S11301701F910F9108950F931F93CF93DF93FC0169
S1130180C1E0D0E001C0E901CE01880F991F880FBA
S1130190991F880F991F9E01220F331F280F391FA3
S11301A0CF01B9010E943D03672B69F73097D1F065
S11301B0CF01BE010E943D03082F192F80E3860F53
S11301C00E949700E02FF12F9E01ADECBCEC0E9441
S11301D05103EC01D695C795D695C795D695C79585
S11301E0309731F7DF91CF911F910F910895CF92FE
S11301F0DF92EF92FF921F93CF93DF936C011FEF77
S1130200E62EF12C81E0E81AF1081F5FE601C10F28
S1130210D11DCE010E949E0088810E949700888192
S11302208B3229F0812F90E08E159F0574F318828C
S1130230DF91CF911F91FF90EF90DF90CF900895C1
S11302405F926F927F928F929F92AF92BF92CF9262
S1130250DF92EF92FF920F931F93CF93DF93CDB76B
S1130260DEB72A970FB6F894DEBF0FBECDBF3C01B0
S1130270AE014F5F5F4F7A016A0100E010E0502E3B
S113028058014601C6010E949E00D6018D916D0160
S11302900E949700F40180818B3209F447C00F5FFC
S11302A01F4F0B30110559F741C0A82FB0E0F501DD
S11302B0EA1BFB0B319741E050E04C0F5D1FE40F4C
S11302C0F51F9081A40FB51F2C91205320839053C8
S11302D09C938F5F381748F7552011F15A94FE010B
S11302E0E50DF11D329681E090E020E030E0D70189
S11302F06D917D01689FA001699F500D1124240F09
S1130300351FAC01440F551F880F991F880F991F83
S1130310880F991F840F951FAE17BF0741F702C0BE
S113032020E030E0F3013183208304C0352D36957D
S113033080E0BBCF2A960FB6F894DEBF0FBECDBFC8
S1130340DF91CF911F910F91FF90EF90DF90CF90AD
S1130350BF90AF909F908F907F906F905F90089523
S11303608091130290E09C01220F331FF901E056A3
S1130370FD4F820F931F880F991F880F991F8C5E62
S11303809D4F9183808386EC90E00E94A500E091CC
S11303901302F0E0EE0FFF1FE056FD4F64E1808191
S11303A091810E94F70080E20E9497008DED90E019
S11303B00E94A5008091130290E0880F991F845732
S11303C09D4F0E9420018091130290E09C01220F16
S11303D0331FF901E80FF91FEE0FFF1FEE0FFF1F88
S11303E0EC5EFD4FD901A457BD4F8D919C9193872D
S11303F0828780E20E94970083EF90E00E94A5002C
S113040080911302805D0E94970080E20E94970011
S1130410809113028F5F8093130208951F93CF93EB
S1130420DF9300D01F92CDB7DEB78FEF90E00E942C
S1130430A500CE0101960E949E0089818053898384
S113044013E08DED90E00E94A500CE0102960E947B
S11304502001898190E0FC01EE0FFF1FE80FF91FD6
S1130460EE0FFF1FEE0FFF1FEC5EFD4F228533855D
S11304708A819B812817390741F484E191E00E9425
S1130480A50081E08093120213C08CE291E00E94E7
S1130490A5001150B1F608C084E491E00E94A500C3
S11304A082E08093120204C0809112028823A1F397
S11304B00F900F900F90DF91CF911F910895CF93DC
S11304C0DF9300D000D0CDB7DEB786E691E00E947E
S11304D0A500CE0101960E949E00898180538983E4
S11304E080E20E94970085E791E00E94A500CE017A
S11304F003960E94200180E20E949700898190E087
S1130500FC01EE0FFF1FE80FF91FEE0FFF1FEE0FA8
S1130510FF1FEC5EFD4F228533858B819C8128175C
S1130520390709F05AC08AE891E00E94A50084EBDB
S113053090E00E94A500CE0102960E949E0080E2F7
S11305400E9497008A81823359F1833309F449C0A8
S1130550813309F046C0898190E09C01220F331F4A
S1130560F901E056FD4F820F931F880F991F880FE2
S1130570991F8C5E9D4F918380838DEC91E00E9446
S1130580A500E981F0E0EE0FFF1FE056FD4F64E1A6
S1130590808191810E94F70080E20E94970021C02F
S11305A088EE91E00E94A500CE0103960E942001EE
S11305B0898190E0FC01EE0FFF1FE80FF91FEE0F99
S11305C0FF1FEE0FFF1FEC5EFD4F8B819C81938715
S11305D0828780E20E94970004C082E092E00E9439
S11305E0A5000F900F900F900F90DF91CF91089579
S11305F0CF93DF931F92CDB7DEB786E691E00E94DA
S1130600A500CE0101960E949E00898180538983B2
S113061080E20E9497008CEC90E00E94A500898102
S113062090E09C01220F331F820F931F880F991FA4
S1130630880F991F8C5E9D4F0E94A50080E20E9446
S1130640970083EE90E00E94A500898190E0FC0170
S1130650EE0FFF1FE80FF91FEE0FFF1FEE0FFF1F36
S1130660EC5EFD4F828593850E94BB0080E20E9470
S113067097000F90DF91CF910895AA1BBB1B51E106
S113068007C0AA1FBB1FA617B70710F0A61BB70BFE
S1130690881F991F5A95A9F780959095BC01CD01A3
S11306A00895A29FB001B39FC001A39F700D811D47
S11306B01124911DB29F700D811D1124911D089567
S10706C0F894FFCFD8
S11306C4312E20456E746572206E657720757365CE
S11306D472206E616D652E2000322E205369676E80
S11306E420496E2E2000332E2045646974206375DE
S11306F47272656E7420646174612E2000342E203D
S113070453686F772063757272656E7420646174C4
S1130714612E200043686F6F736520612063686FE6
S11307246963653A2000456E74657220596F757269
S11307342055736572204E616D653A2000456E74D0
S1130744657220596F75722050617373776F726488
S11307543A2000596F75722049442069732000457A
S11307646E74657220596F757220557365722049D1
S1130774443A200077656C636F6D6520746F206F55
S113078475722073797374656D3A20004E6F74200A
S1130794436F7272656374212054727920416761D6
S11307A4696E20005741524E494E47212120796FEA
S11307B47520617265206F7574206F662074726988
S11307C4616C732E2000456E74657220596F7572C6
S11307D42049442000456E74657220746865205075
S11307E4617373776F72643A2000312E2045646913
S11307F47420596F75722055736572204E616D654E
S11308042E09322E204564697420596F7572205064
S1130814617373776F72642E0920332E20657869AF
S1130824742074686520656469742E2000456E74B0
S1130834657220596F7572204E6577205573657201
S1130844204E616D653A2000456E74657220596FBF
S11308547572204E65772050617373776F72643AB2
S1130864200057726F6E672050617373776F7264E0
S105087421005D
S9030000FC
