:100000000C942A000C9447000C9447000C94470071
:100010000C9447000C9447000C9447000C94470044
:100020000C9447000C9447000C9447000C94470034
:100030000C9447000C9447000C9447000C94470024
:100040000C9447000C9447000C9447000C94470014
:100050000C94470011241FBECFE5D8E0DEBFCDBF12
:1000600010E0A0E6B0E0E8E6F4E002C005900D92F2
:10007000AA3BB107D9F721E0AAEBB0E001C01D927D
:10008000AB30B207E1F70E9449000C9432020C94A5
:100090000000CF93DF931F92CDB7DEB70E946400BC
:1000A00080E690E00E947900CE0101960E947200E5
:1000B0008981813319F0843321F0F2CF0E948401C9
:1000C000EFCF0E94D801ECCF83E389B988E18AB9E8
:1000D00086E880BD08955D9BFECF8CB95E9BFECF08
:1000E0005E9A08955F9BFECF5F9A2CB1FC0120833E
:1000F00008950F931F93CF93FC018081882359F0BB
:100100008F01C0E00E946B00CF5FF801EC0FF11D82
:1001100080818111F7CFCF911F910F9108950F9397
:100120001F93CF93DF93FC01C1E0D0E001C0E90150
:10013000CE01880F991F880F991F880F991F9E0164
:10014000220F331F280F391FCF01B9010E940F0260
:10015000672B69F73097D1F0CF01BE010E940F02E3
:10016000082F192F80E3860F0E946B00E02FF12FDC
:100170009E01ADECBCEC0E942302EC01D695C79524
:10018000D695C795D695C795309731F7DF91CF9122
:100190001F910F910895CF92DF92EF92FF921F93DC
:1001A000CF93DF936C011FEFE62EF12C81E0E81A6C
:1001B000F1081F5FE601C10FD11DCE010E94720040
:1001C00088810E946B0088818B3229F0812F90E01A
:1001D0008E159F0574F31882DF91CF911F91FF90C8
:1001E000EF90DF90CF9008955F926F927F928F9201
:1001F0009F92AF92BF92CF92DF92EF92FF920F93B6
:100200001F93CF93DF93CDB7DEB72A970FB6F8943D
:10021000DEBF0FBECDBF3C01AE014F5F5F4F7A0125
:100220006A0100E010E0502E58014601C6010E940C
:100230007200D6018D916D010E946B00F4018081E6
:100240008B3209F447C00F5F1F4F0B30110559F770
:1002500041C0A82FB0E0F501EA1BFB0B319741E04C
:1002600050E04C0F5D1FE40FF51F9081A40FB51FE8
:100270002C912053208390539C938F5F381748F71D
:10028000552011F15A94FE01E50DF11D329681E0E1
:1002900090E020E030E0D7016D917D01689FA001E2
:1002A000699F500D1124240F351FAC01440F551FB9
:1002B000880F991F880F991F880F991F840F951F0A
:1002C000AE17BF0741F702C020E030E0F3013183F1
:1002D000208304C0352D369580E0BBCF2A960FB61B
:1002E000F894DEBF0FBECDBFDF91CF911F910F916C
:1002F000FF90EF90DF90CF90BF90AF909F908F9046
:100300007F906F905F90089582E790E00E9479005F
:10031000E091BA00F0E0EE0FFF1FE950FF4F62E0FE
:10032000808191810E94CB008091BA0090E0DC0135
:10033000AA0FBB1FAA0FBB1FA554BF4F880F991F41
:10034000FC01E950FF4F808191818D939C9389E856
:1003500090E00E9479008091BA0090E0880F991F88
:100360008D519F4F0E94F4008091BA0090E0DC0113
:10037000AA0FBB1FAA0FBB1FA554BF4F880F991F01
:10038000FC01ED51FF4F8081918113969C938E93D8
:1003900012978FE990E00E9479008091BA00805D09
:1003A0000E946B008091BA008F5F8093BA0008951D
:1003B000CF93DF931F92CDB7DEB78BEA90E00E9418
:1003C0007900CE0101960E94720089818053898351
:1003D00088E790E00E947900E981F0E0EE0FFF1FCE
:1003E000EE0FFF1FE554FF4F808191810E9479003D
:1003F0008AE00E946B008FE890E00E947900E9811A
:10040000F0E0EE0FFF1FEE0FFF1FE554FF4F82815C
:1004100093810E948F000F90DF91CF910895AA1BC6
:10042000BB1B51E107C0AA1FBB1FA617B70710F0DF
:10043000A61BB70B881F991F5A95A9F78095909511
:10044000BC01CD010895A29FB001B39FC001A39F3D
:10045000700D811D1124911DB29F700D811D1124FD
:08046000911D0895F894FFCFEF
:1004680043686F6F736520612063686F6963653ADD
:100478002000456E74657220596F7572205573653A
:1004880072204E616D653A2000456E746572205980
:100498006F75722050617373776F72643A200059D8
:1004A8006F75722049442069732000456E74657227
:0A04B80020596F757220494420009E
:00000001FF
