:100000000C942A000C9447000C9447000C94470071
:100010000C9447000C9447000C9447000C94470044
:100020000C9447000C9447000C9447000C94470034
:100030000C9447000C9447000C9447000C94470024
:100040000C9447000C9447000C9447000C94470014
:100050000C94470011241FBECFE5D8E0DEBFCDBF12
:1000600012E0A0E6B0E0EAE0FDE002C005900D92EB
:10007000A23EB107D9F723E0A2EEB2E001C01D9283
:10008000A93EB207E1F70E94D7000C9483060C94B6
:1000900000000E9489000895CF93DF93D82FC62FC8
:1000A0000E94910080E50E94A5008D2F0E94BE0055
:1000B0008C2F0E94BE000E94D4002FEF80E792E0B8
:1000C000215080409040E1F700C00000DF91CF91C7
:1000D0000895CF93C82F0E94910080E50E94A5004B
:1000E0008C2F0E94BE000E949B0080E50E94B10000
:1000F0000E94C900C82F0E94D4002FEF80E792E031
:10010000215080409040E1F700C000008C2FCF913B
:10011000089587E080B981B18C7F81B984E086BF82
:10012000089584EA86BF06B607FEFDCF81B1887FB9
:100130008830E1F7089584EA86BF06B607FEFDCF52
:1001400081B1887F8031E1F70895880F83B984E811
:1001500086BF06B607FEFDCF81B1887F8831E1F703
:100160000895880F83B9189A84E886BF06B607FEFB
:10017000FDCF81B1887F8034E1F7089583B984E8A9
:1001800086BF06B607FEFDCF81B1887F8832E1F7D2
:10019000089584E886BF06B607FEFDCF81B1887F4B
:1001A0008835E1F783B1089584E986BF0895CF9338
:1001B000DF931F92CDB7DEB70E94450261E082E077
:1001C0000E94F1010E94490080E090E00E946900D5
:1001D000892B31F48FEF93E00E9469008093E40251
:1001E00080E690E00E945A0287E690E00E945A0260
:1001F0008091E40290E00E94700280E20E944C0232
:1002000085E890E00E945A028EE990E00E945A022E
:100210008BEA90E00E945A0282EC90E00E945A021F
:1002200089ED90E00E945A02CE0101960E9453028D
:1002300089810E944C0280E20E944C0289818233B3
:1002400061F018F4813331F0DBCF833389F08433EC
:1002500091F0D6CF0E94D803D3CF0E94B2048091F0
:10026000E302823059F0813059F60E942106C8CF4E
:100270000E941505C5CF0E94C505C2CF80E090E061
:100280000F90DF91CF910895843008F0A9C06830B5
:1002900008F0A6C04130E9F120F0423009F46DC009
:1002A0000895813091F028F08230D9F0833029F11F
:1002B00008952BB381E090E002C0880F991F6A95E2
:1002C000E2F7809582238BBB089528B381E090E00C
:1002D00002C0880F991F6A95E2F78095822388BB38
:1002E000089525B381E090E002C0880F991F6A95B8
:1002F000E2F78095822385BB089522B381E090E0E8
:1003000002C0880F991F6A95E2F78095822382BB0D
:100310000895813089F028F08230C9F0833011F1DE
:1003200008952BB381E090E002C0880F991F6A9571
:10033000E2F7822B8BBB089528B381E090E002C0E6
:10034000880F991F6A95E2F7822B88BB089525B321
:1003500081E090E002C0880F991F6A95E2F7822B36
:1003600085BB089522B381E090E002C0880F991FF9
:100370006A95E2F7822B82BB0895813089F028F0DC
:100380008230C9F0833011F108952BB381E090E001
:1003900002C0880F991F6A95E2F782278BBB0895E8
:1003A00028B381E090E002C0880F991F6A95E2F7B8
:1003B000822788BB089525B381E090E002C0880FB2
:1003C000991F6A95E2F7822785BB089522B381E0E1
:1003D00090E002C0880F991F6A95E2F7822782BBDE
:1003E0000895843038F56623B1F0613019F5813015
:1003F00049F028F0823049F0833051F008958FEFB2
:100400008ABB08958FEF87BB08958FEF84BB089553
:100410008FEF81BB0895813041F028F0823039F0B0
:10042000833039F008951ABA089517BA089514BAA6
:10043000089511BA0895843038F56623B1F061301B
:1004400019F5813049F028F0823049F0833051F0BD
:1004500008958FEF8BBB08958FEF88BB08958FEFC2
:1004600085BB08958FEF82BB0895813041F028F05D
:10047000823039F0833039F008951BBA089518BAE4
:10048000089515BA089512BA089583E389B988E1E9
:100490008AB986E880BD08955D9BFECF8CB95E9BCE
:1004A000FECF5E9A08955F9BFECF5F9A2CB1FC0150
:1004B000208308950F931F93CF93FC01808188239D
:1004C00059F08F01C0E00E944C02CF5FF801EC0FA1
:1004D000F11D80818111F7CFCF911F910F91089568
:1004E0000F931F93CF93DF93FC01892B21F480E3BB
:1004F0000E944C0230C0C1E0D0E001C0E901CE0151
:10050000880F991F880F991F880F991F9E01220F2E
:10051000331F280F391FCF01B9010E946006672BD6
:1005200069F7CF01BE010E946006082F192F80E3F2
:10053000860F0E944C02E02FF12F9E01ADECBCEC27
:100540000E947406EC01D695C795D695C795D695A9
:10055000C795309731F7DF91CF911F910F91089593
:10056000CF92DF92EF92FF921F93CF93DF936C01B4
:100570001FEFE62EF12C81E0E81AF1081F5FE6017B
:10058000C10FD11DCE010E94530288810E944C02EE
:1005900088818B3229F0812F90E08E159F0574F3AE
:1005A0001882DF91CF911F91FF90EF90DF90CF9055
:1005B00008955F926F927F928F929F92AF92BF92B7
:1005C000CF92DF92EF92FF920F931F93CF93DF931F
:1005D000CDB7DEB72A970FB6F894DEBF0FBECDBFFA
:1005E0003C01AE014F5F5F4F7A016A0100E010E00D
:1005F000502E58014601C6010E945302D6018D912A
:100600006D010E944C02F40180818B3209F447C0D5
:100610000F5F1F4F0B30110559F741C0A82FB0E0F5
:10062000F501EA1BFB0B319741E050E04C0F5D1FD9
:10063000E40FF51F9081A40FB51F2C912053208348
:1006400090539C938F5F381748F7552011F15A94B7
:10065000FE01E50DF11D329681E090E020E030E0F2
:10066000D7016D917D01689FA001699F500D1124F4
:10067000240F351FAC01440F551F880F991F880F99
:10068000991F880F991F840F951FAE17BF0741F759
:1006900002C020E030E0F3013183208304C0352D17
:1006A000369580E0BBCF2A960FB6F894DEBF0FBE1A
:1006B000CDBFDF91CF911F910F91FF90EF90DF9011
:1006C000CF90BF90AF909F908F907F906F905F90F2
:1006D0000895EF92FF920F931F93CF93DF937C01C6
:1006E000D62FFC0160816623C9F0F2E3DF9F800111
:1006F00011240B5F1F4FC0E0C8018C0F911D0E9499
:100700004C00CF5F8091E2028F5F8093E202F7019D
:10071000EC0FF11D60816111EFCF01C0C0E022E359
:10072000D29FC0011124059660E08C0F911D0E949C
:100730004C00DF91CF911F910F91FF90EF900895A2
:10074000682F22E3829FC00111240E944C008091F7
:10075000E2028F5F8093E2020895EF92FF920F937F
:100760001F93CF93DF937C0182E3689F8001112464
:100770000F5F1F4FC0E0D0E0B7010C2E02C076958E
:1007800067950A94E2F7C8010E944C008091E2024A
:100790008F5F8093E20228960F5F1F4FC032D10512
:1007A00059F7DF91CF911F910F91FF90EF9008952E
:1007B000CF938091E4028A3008F076C090E0FC018B
:1007C000EE0FFF1FEB52FC4FC6E1C89F9001C99F7F
:1007D000300D1124C9018B519D4F918380838BEE85
:1007E00090E00E945A02E091E402F0E0EE0FFF1F59
:1007F000EB52FC4F64E1808191810E94B00280E263
:100800000E944C0282E091E00E945A028091E40230
:1008100090E0880F991F8F539C4F0E94D9028091BE
:10082000E40290E0C89FD001C99FB00D1124AB51E4
:10083000BD4F880F991FFC01EF53FC4F80819181C0
:1008400055969C938E93549780E20E944C0288E1C7
:1008500091E00E945A028091E402805D0E944C0265
:1008600080E20E944C028091E4020E94A003609109
:10087000E4028091D5039091D6030E9469036091B0
:10088000E402E62FF0E0EE0FFF1FEF53FC4F8081F4
:1008900091810E94AD036091E4026F5F6093E40276
:1008A0008FEF93E00E944C00CF910895FF920F9339
:1008B0001F93CF93DF9322E3829FC00111240196FF
:1008C000C82F6894FF24F2F8F80EF816C0F0D0E0B4
:1008D00000E010E08C2F90E00E94690090E02D2F46
:1008E000220F220F220F02C0880F991F2A95E2F7CC
:1008F000080F191FDF5FCF5FFC1660F702C000E032
:1009000010E0C801DF91CF911F910F91FF900895E2
:100910000F931F93CF93DF938C01C2E36C9FC02D85
:100920001124CB5F8C2F90E00E946900882379F01E
:10093000D0E0F801ED0FF11D80838C2F90E001963F
:100940000E946900DF5FCF5F8111F3CF01C0D0E06B
:10095000F801ED0FF11D10828D2FDF91CF911F91C6
:100960000F9108950F931F93CF93DF9300D01F92A1
:10097000CDB7DEB784E291E00E945A02CE01019623
:100980000E94530289818053898313E006E182E04B
:1009900091E00E945A02CE0102960E94D9028981FA
:1009A0000E945604E9810E9FF0011124EB51FD4F86
:1009B000248935898A819B812817390741F489E385
:1009C00091E00E945A0281E08093E30226C084E510
:1009D00091E00E945A0241E061E082E00E944401FD
:1009E0002FEF83ED90E3215080409040E1F700C06D
:1009F000000040E061E082E00E944401115039F6BD
:100A000008C082E691E00E945A0282E08093E302ED
:100A100004C08091E3028823A1F30F900F900F9000
:100A2000DF91CF911F910F9108951F93CF93DF9383
:100A300000D000D0CDB7DEB784E891E00E945A0222
:100A4000CE0101960E94530289818053898380E2FE
:100A50000E944C0299818091E402981708F089C0A5
:100A600083E991E00E945A02CE0103960E94D902C6
:100A700080E20E944C021981812F0E94560426E1D7
:100A8000219FF0011124EB51FD4F958B848BE9815F
:100A90002E9FF0011124EB51FD4F248935898B8164
:100AA0009C812817390709F05FC016E188EA91E0B8
:100AB0000E945A0289ED90E00E945A02CE010296ED
:100AC0000E94530280E20E944C028A818233A1F18B
:100AD000833309F452C0813349F7898190E0FC01E6
:100AE000EE0FFF1FEB52FC4F189F9001199F300D26
:100AF0001124C9018B519D4F918380838BEE91E02E
:100B00000E945A02E981F0E0EE0FFF1FEB52FC4F0A
:100B100064E1808191810E94B0026981E62FF0E05A
:100B2000EE0FFF1FEB52FC4F808191810E94690301
:100B300080E20E944C02BACF86E092E00E945A0204
:100B4000CE0103960E94D90269818B819C81169FF8
:100B5000F0011124EB51FD4F958B848B0E94AD0366
:100B600080E20E944C02A2CF80E292E00E945A02F0
:100B700004C080E392E00E945A020F900F900F9001
:100B80000F90DF91CF911F9108950F931F93CF93F3
:100B9000DF931F92CDB7DEB784E891E00E945A023E
:100BA000CE0101960E94530289810E944C028981E4
:100BB0008053898380E20E944C0299818091E402F3
:100BC0009817A8F588E492E00E945A02698116E11C
:100BD000169FC00111248B519D4F0E94880489816A
:100BE000189FC00111248B519D4F0E945A0280E230
:100BF0000E944C0288E091E00E945A020981802FF5
:100C00000E945604109FF0011124EB51FD4F958B6B
:100C1000848BE9811E9FF0011124EB51FD4F8489E3
:100C200095890E94700280E20E944C0204C089E50E
:100C300092E00E945A020F90DF91CF911F910F9185
:100C40000895CF93DF931F92CDB7DEB761E080E0C8
:100C50000E94F10180E792E00E945A0288E892E047
:100C60000E945A0283ED92E00E945A02CE01019640
:100C70000E9453028981823379F018F4813331F074
:100C8000EDCF833379F0843399F0E8CF42E063E02D
:100C900080E00E944401E2CF42E064E080E00E94F4
:100CA0004401DCCF42E062E080E00E944401D6CF04
:100CB00060E080E00E941B020F90DF91CF910895C9
:100CC000AA1BBB1B51E107C0AA1FBB1FA617B70772
:100CD00010F0A61BB70B881F991F5A95A9F780958E
:100CE0009095BC01CD010895A29FB001B39FC001B2
:100CF000A39F700D811D1124911DB29F700D811D48
:0A0D00001124911D0895F894FFCF0F
:100D0A002A2A2A2A2A2000546865206E756D62658F
:100D1A0072206F662063757272656E7420757365D2
:100D2A0072733A2000312E20456E746572206E650A
:100D3A00772075736572206E616D652E2000322EE4
:100D4A00205369676E20496E2E2000332E20456499
:100D5A0069742063757272656E7420646174612EA1
:100D6A002000342E2053686F772063757272656E87
:100D7A007420646174612E200043686F6F7365206C
:100D8A00612063686F6963653A2000456E74657215
:100D9A0020596F75722055736572206E616D653AC0
:100DAA002000456E74657220596F75722050617308
:100DBA0073776F72643A2000596F75722049442024
:100DCA0069732000456E74657220596F75722055DB
:100DDA007365722049443A2000207C2A2A2A436FEC
:100DEA0072726563742050617373776F72642A2A12
:100DFA002A7C20004E6F7420436F727265637421DF
:100E0A0020005741524E494E47212120796F7520C3
:100E1A00617265206F7574206F6620747269616CE7
:100E2A00732E2000456E74657220596F75722049C1
:100E3A00442000456E7465722074686520506173A1
:100E4A0073776F72643A2000312E204564697420EA
:100E5A00596F75722055736572204E616D652E0942
:100E6A00322E204564697420596F7572205061735F
:100E7A0073776F72642E0920332E20657869742087
:100E8A0074686520656469742E2000456E74657205
:100E9A0020596F7572204E65772055736572204E02
:100EAA00616D653A2000456E74657220596F7572DE
:100EBA00204E65772050617373776F72643A200011
:100ECA0057726F6E672050617373776F7264210077
:100EDA00576520446F6E27742068617665207468B0
:100EEA006973204944212000596F75722055736532
:100EFA0072204E616D653A2000576520446F6E2757
:100F0A00742048617665207468697320494420001A
:100F1A0057656C636F6D6520746F206F75722073EF
:100F2A00797374656D212000312E20546F67676CC8
:100F3A006520526564204C696768742E0909322E4F
:100F4A0020546F67676C6520426C7565204C696731
:100F5A0068742E0909332E20546F67676C652074F4
:100F6A0068652046616E2E0909342E204578697419
:100F7A002E2000596F75722043686F6963653A20A5
:020F8A00000065
:00000001FF
