:100000000C942A000C9447000C9447000C94470071
:100010000C9447000C9447000C9447000C94470044
:100020000C9447000C9447000C9447000C94470034
:100030000C9447000C9447000C9447000C94470024
:100040000C9447000C9447000C9447000C94470014
:100050000C94470011241FBECFE5D8E0DEBFCDBF12
:1000600012E0A0E6B0E0ECE6F9E002C005900D92E7
:10007000AC3AB107D9F723E0ACEAB2E001C01D9277
:10008000AE34B207E1F70E9449000C94B4040C941A
:100090000000CF93DF931F92CDB7DEB70E947D01A2
:1000A00080E690E00E94920189E790E00E94920130
:1000B00086E890E00E9492018DE990E00E94920112
:1000C00084EB90E00E949201CE0101960E948B0188
:1000D00089810E94840180E20E94840189818233A7
:1000E00061F018F4813331F0DBCF833389F084334E
:1000F00091F0D6CF0E949D02D3CF0E94FB02809147
:10010000AC02823059F0813059F60E945004C8CFB9
:100110000E945F03C5CF0E940204C2CF80E090E03E
:100120000F90DF91CF910895843008F0A9C0683016
:1001300008F0A6C04130E9F120F0423009F46DC06A
:100140000895813091F028F08230D9F0833029F180
:1001500008952BB381E090E002C0880F991F6A9543
:10016000E2F7809582238BBB089528B381E090E06D
:1001700002C0880F991F6A95E2F78095822388BB99
:10018000089525B381E090E002C0880F991F6A9519
:10019000E2F78095822385BB089522B381E090E049
:1001A00002C0880F991F6A95E2F78095822382BB6F
:1001B0000895813089F028F08230C9F0833011F140
:1001C00008952BB381E090E002C0880F991F6A95D3
:1001D000E2F7822B8BBB089528B381E090E002C048
:1001E000880F991F6A95E2F7822B88BB089525B383
:1001F00081E090E002C0880F991F6A95E2F7822B98
:1002000085BB089522B381E090E002C0880F991F5A
:100210006A95E2F7822B82BB0895813089F028F03D
:100220008230C9F0833011F108952BB381E090E062
:1002300002C0880F991F6A95E2F782278BBB089549
:1002400028B381E090E002C0880F991F6A95E2F719
:10025000822788BB089525B381E090E002C0880F13
:10026000991F6A95E2F7822785BB089522B381E042
:1002700090E002C0880F991F6A95E2F7822782BB3F
:100280000895843038F56623B1F0613019F5813076
:1002900049F028F0823049F0833051F008958FEF13
:1002A0008ABB08958FEF87BB08958FEF84BB0895B5
:1002B0008FEF81BB0895813041F028F0823039F012
:1002C000833039F008951ABA089517BA089514BA08
:1002D000089511BA0895843078F4813041F028F0FF
:1002E000823039F0833039F008956BBB089568BBD4
:1002F000089565BB089562BB089583E389B988E1D9
:100300008AB986E880BD08955D9BFECF8CB95E9B5F
:10031000FECF5E9A08955F9BFECF5F9A2CB1FC01E1
:10032000208308950F931F93CF93FC01808188232E
:1003300059F08F01C0E00E948401CF5FF801EC0FFB
:10034000F11D80818111F7CFCF911F910F910895F9
:100350000F931F93CF93DF93FC01C1E0D0E001C066
:10036000E901CE01880F991F880F991F880F991FE7
:100370009E01220F331F280F391FCF01B9010E94A0
:100380009104672B69F73097D1F0CF01BE010E942D
:100390009104082F192F80E3860F0E948401E02F1B
:1003A000F12F9E01ADECBCEC0E94A504EC01D695AA
:1003B000C795D695C795D695C795309731F7DF91F4
:1003C000CF911F910F910895CF92DF92EF92FF92FC
:1003D0001F93CF93DF936C011FEFE62EF12C81E08A
:1003E000E81AF1081F5FE601C10FD11DCE010E947E
:1003F0008B0188810E94840188818B3229F0812FB2
:1004000090E08E159F0574F31882DF91CF911F91B4
:10041000FF90EF90DF90CF9008955F926F927F9260
:100420008F929F92AF92BF92CF92DF92EF92FF9204
:100430000F931F93CF93DF93CDB7DEB72A970FB6F5
:10044000F894DEBF0FBECDBF3C01AE014F5F5F4FE2
:100450007A016A0100E010E0502E58014601C60101
:100460000E948B01D6018D916D010E948401F401DF
:1004700080818B3209F447C00F5F1F4F0B3011058D
:1004800059F741C0A82FB0E0F501EA1BFB0B3197EB
:1004900041E050E04C0F5D1FE40FF51F9081A40F69
:1004A000B51F2C912053208390539C938F5F381756
:1004B00048F7552011F15A94FE01E50DF11D3296D1
:1004C00081E090E020E030E0D7016D917D01689FF0
:1004D000A001699F500D1124240F351FAC01440F5A
:1004E000551F880F991F880F991F880F991F840F18
:1004F000951FAE17BF0741F702C020E030E0F301BF
:100500003183208304C0352D369580E0BBCF2A96F9
:100510000FB6F894DEBF0FBECDBFDF91CF911F9114
:100520000F91FF90EF90DF90CF90BF90AF909F9092
:100530008F907F906F905F9008958091AD0290E0D2
:100540009C01220F331FF901E65CFC4F820F931FC1
:10055000880F991F880F991F82559D4F9183808323
:1005600086EC90E00E949201E091AD02F0E0EE0F87
:10057000FF1FE65CFC4F64E1808191810E94E401F1
:1005800080E20E9484018DED90E00E9492018091B2
:10059000AD0290E0880F991F8A5D9C4F0E940D026A
:1005A0008091AD0290E09C01220F331FF901E80F0A
:1005B000F91FEE0FFF1FEE0FFF1FE255FD4FD90190
:1005C000AA5DBC4F8D919C919387828780E20E94A7
:1005D000840183EF90E00E9492018091AD02805DE2
:1005E0000E94840180E20E9484018091AD028F5FAD
:1005F0008093AD0208951F93CF93DF9300D01F9295
:10060000CDB7DEB78FEF90E00E949201CE01019648
:100610000E948B0189818053898313E08DED90E0E6
:100620000E949201CE0102960E940D02898190E003
:10063000FC01EE0FFF1FE80FF91FEE0FFF1FEE0F7B
:10064000FF1FE255FD4F228533858A819B81281744
:10065000390741F484E191E00E94920181E08093A6
:10066000AC0226C08FE291E00E94920141E061E07D
:1006700082E00E9494002FEF83ED90E321508040B0
:100680009040E1F700C0000040E061E082E00E949D
:100690009400115019F608C08DE391E00E94920178
:1006A00082E08093AC0204C08091AC028823A1F365
:1006B0000F900F900F90DF91CF911F910895CF93DE
:1006C000DF9300D000D0CDB7DEB78FE591E00E9478
:1006D0009201CE0101960E948B018981805389830A
:1006E00080E20E94840199818091AD02981708F000
:1006F0007EC08EE691E00E949201CE0103960E9498
:100700000D0280E20E948401898190E0FC01EE0FDD
:10071000FF1FE80FF91FEE0FFF1FEE0FFF1FE2553F
:10072000FD4F228533858B819C812817390709F07D
:1007300059C083E891E00E94920184EB90E00E940E
:100740009201CE0102960E948B0180E20E948401F8
:100750008A81823351F1833309F44DC0813349F7E3
:10076000898190E09C01220F331FF901E65CFC4F68
:10077000820F931F880F991F880F991F82559D4FD5
:100780009183808386EC91E00E949201E981F0E000
:10079000EE0FFF1FE65CFC4F64E1808191810E94B7
:1007A000E40180E20E948401C4CF81EE91E00E94C6
:1007B0009201CE0103960E940D02898190E0FC0116
:1007C000EE0FFF1FE80FF91FEE0FFF1FEE0FFF1FC9
:1007D000E255FD4F8B819C819387828780E20E9446
:1007E0008401A7CF8BEF91E00E94920104C08BE0BF
:1007F00092E00E9492010F900F900F900F90DF9166
:10080000CF910895CF93DF931F92CDB7DEB78FE5D9
:1008100091E00E949201CE0101960E948B01898194
:10082000805389839091AD02891790F580E20E94F0
:1008300084018CEC90E00E949201898190E09C01FF
:10084000220F331F820F931F880F991F880F991F44
:1008500082559D4F0E94920180E20E94840183EEA6
:1008600090E00E949201898190E0FC01EE0FFF1F51
:10087000E80FF91FEE0FFF1FEE0FFF1FE255FD4FB0
:10088000828593850E94A80180E20E94840104C0B1
:1008900083E292E00E9492010F90DF91CF91089540
:1008A000CF93DF931F92CDB7DEB761E080E00E9467
:1008B00041018AE392E00E94920182E592E00E9467
:1008C00092018DE992E00E949201CE0101960E9470
:1008D0008B018981823379F018F4813331F0EDCFC7
:1008E000833379F0843399F0E8CF42E063E080E02D
:1008F0000E949400E2CF42E064E080E00E94940015
:10090000DCCF42E062E080E00E949400D6CF60E05D
:1009100070E080E090E00E946B010F90DF91CF913A
:100920000895AA1BBB1B51E107C0AA1FBB1FA61736
:10093000B70710F0A61BB70B881F991F5A95A9F788
:1009400080959095BC01CD010895A29FB001B39F01
:10095000C001A39F700D811D1124911DB29F700DC8
:0C096000811D1124911D0895F894FFCF13
:10096C00312E20456E746572206E65772075736527
:10097C0072206E616D652E2000322E205369676ED9
:10098C0020496E2E2000332E204564697420637537
:10099C007272656E7420646174612E2000342E2096
:1009AC0053686F772063757272656E74206461741E
:1009BC00612E200043686F6F736520612063686F40
:1009CC006963653A2000456E74657220596F7572C3
:1009DC002055736572204E616D653A2000456E742A
:1009EC00657220596F75722050617373776F7264E2
:1009FC003A2000596F7572204944206973200045D4
:100A0C006E74657220596F7572205573657220492A
:100A1C00443A2000207C2A2A2A436F727265637440
:100A2C002050617373776F72642A2A2A7C20004EDF
:100A3C006F7420436F7272656374212000574152AA
:100A4C004E494E47212120796F7520617265206FC8
:100A5C007574206F6620747269616C732E2000456A
:100A6C006E74657220596F75722049442000456E72
:100A7C00746572207468652050617373776F72644B
:100A8C003A2000312E204564697420596F7572200C
:100A9C0055736572204E616D652E09322E204564AA
:100AAC00697420596F75722050617373776F72641B
:100ABC002E0920332E2065786974207468652065B2
:100ACC006469742E2000456E74657220596F7572BE
:100ADC00204E65772055736572204E616D653A2006
:100AEC0000456E74657220596F7572204E657720C3
:100AFC0050617373776F72643A200057726F6E6730
:100B0C002050617373776F72642100576520446FB6
:100B1C006E27742068617665207468697320494477
:100B2C00212000576520446F6E277420486176653C
:100B3C002074686973204944200057656C636F6D9D
:100B4C006520746F206F75722073797374656D21D5
:100B5C002000312E20546F67676C6520526564202D
:100B6C004C696768742E0909322E20546F67676CC4
:100B7C006520426C7565204C696768742E090933D1
:100B8C002E20546F67676C65207468652046616E13
:100B9C002E0909342E20457869742E2000596F7562
:0C0BAC00722043686F6963653A20000006
:00000001FF
